{
  "_format": "hh-sol-artifact-1",
  "contractName": "MyNifty",
  "sourceName": "contracts/MyNifty.sol",
  "abi": [
    {
      "inputs": [],
      "stateMutability": "nonpayable",
      "type": "constructor"
    },
    {
      "anonymous": false,
      "inputs": [
        {
          "indexed": true,
          "internalType": "address",
          "name": "owner",
          "type": "address"
        },
        {
          "indexed": true,
          "internalType": "address",
          "name": "approved",
          "type": "address"
        },
        {
          "indexed": true,
          "internalType": "uint256",
          "name": "tokenId",
          "type": "uint256"
        }
      ],
      "name": "Approval",
      "type": "event"
    },
    {
      "anonymous": false,
      "inputs": [
        {
          "indexed": true,
          "internalType": "address",
          "name": "owner",
          "type": "address"
        },
        {
          "indexed": true,
          "internalType": "address",
          "name": "operator",
          "type": "address"
        },
        {
          "indexed": false,
          "internalType": "bool",
          "name": "approved",
          "type": "bool"
        }
      ],
      "name": "ApprovalForAll",
      "type": "event"
    },
    {
      "anonymous": false,
      "inputs": [
        {
          "indexed": false,
          "internalType": "uint256",
          "name": "_fromTokenId",
          "type": "uint256"
        },
        {
          "indexed": false,
          "internalType": "uint256",
          "name": "_toTokenId",
          "type": "uint256"
        }
      ],
      "name": "BatchMetadataUpdate",
      "type": "event"
    },
    {
      "anonymous": false,
      "inputs": [
        {
          "indexed": false,
          "internalType": "uint256",
          "name": "_tokenId",
          "type": "uint256"
        }
      ],
      "name": "MetadataUpdate",
      "type": "event"
    },
    {
      "anonymous": false,
      "inputs": [
        {
          "indexed": true,
          "internalType": "address",
          "name": "previousOwner",
          "type": "address"
        },
        {
          "indexed": true,
          "internalType": "address",
          "name": "newOwner",
          "type": "address"
        }
      ],
      "name": "OwnershipTransferred",
      "type": "event"
    },
    {
      "anonymous": false,
      "inputs": [
        {
          "indexed": true,
          "internalType": "address",
          "name": "from",
          "type": "address"
        },
        {
          "indexed": true,
          "internalType": "address",
          "name": "to",
          "type": "address"
        },
        {
          "indexed": true,
          "internalType": "uint256",
          "name": "tokenId",
          "type": "uint256"
        }
      ],
      "name": "Transfer",
      "type": "event"
    },
    {
      "inputs": [
        {
          "internalType": "address",
          "name": "recipient",
          "type": "address"
        },
        {
          "internalType": "string",
          "name": "tokenURI",
          "type": "string"
        }
      ],
      "name": "MintNft",
      "outputs": [
        {
          "internalType": "uint256",
          "name": "",
          "type": "uint256"
        }
      ],
      "stateMutability": "nonpayable",
      "type": "function"
    },
    {
      "inputs": [
        {
          "internalType": "address",
          "name": "to",
          "type": "address"
        },
        {
          "internalType": "uint256",
          "name": "tokenId",
          "type": "uint256"
        }
      ],
      "name": "approve",
      "outputs": [],
      "stateMutability": "nonpayable",
      "type": "function"
    },
    {
      "inputs": [
        {
          "internalType": "address",
          "name": "owner",
          "type": "address"
        }
      ],
      "name": "balanceOf",
      "outputs": [
        {
          "internalType": "uint256",
          "name": "",
          "type": "uint256"
        }
      ],
      "stateMutability": "view",
      "type": "function"
    },
    {
      "inputs": [
        {
          "internalType": "uint256",
          "name": "tokenId",
          "type": "uint256"
        }
      ],
      "name": "getApproved",
      "outputs": [
        {
          "internalType": "address",
          "name": "",
          "type": "address"
        }
      ],
      "stateMutability": "view",
      "type": "function"
    },
    {
      "inputs": [
        {
          "internalType": "address",
          "name": "owner",
          "type": "address"
        },
        {
          "internalType": "address",
          "name": "operator",
          "type": "address"
        }
      ],
      "name": "isApprovedForAll",
      "outputs": [
        {
          "internalType": "bool",
          "name": "",
          "type": "bool"
        }
      ],
      "stateMutability": "view",
      "type": "function"
    },
    {
      "inputs": [],
      "name": "name",
      "outputs": [
        {
          "internalType": "string",
          "name": "",
          "type": "string"
        }
      ],
      "stateMutability": "view",
      "type": "function"
    },
    {
      "inputs": [],
      "name": "owner",
      "outputs": [
        {
          "internalType": "address",
          "name": "",
          "type": "address"
        }
      ],
      "stateMutability": "view",
      "type": "function"
    },
    {
      "inputs": [
        {
          "internalType": "uint256",
          "name": "tokenId",
          "type": "uint256"
        }
      ],
      "name": "ownerOf",
      "outputs": [
        {
          "internalType": "address",
          "name": "",
          "type": "address"
        }
      ],
      "stateMutability": "view",
      "type": "function"
    },
    {
      "inputs": [],
      "name": "renounceOwnership",
      "outputs": [],
      "stateMutability": "nonpayable",
      "type": "function"
    },
    {
      "inputs": [
        {
          "internalType": "address",
          "name": "from",
          "type": "address"
        },
        {
          "internalType": "address",
          "name": "to",
          "type": "address"
        },
        {
          "internalType": "uint256",
          "name": "tokenId",
          "type": "uint256"
        }
      ],
      "name": "safeTransferFrom",
      "outputs": [],
      "stateMutability": "nonpayable",
      "type": "function"
    },
    {
      "inputs": [
        {
          "internalType": "address",
          "name": "from",
          "type": "address"
        },
        {
          "internalType": "address",
          "name": "to",
          "type": "address"
        },
        {
          "internalType": "uint256",
          "name": "tokenId",
          "type": "uint256"
        },
        {
          "internalType": "bytes",
          "name": "data",
          "type": "bytes"
        }
      ],
      "name": "safeTransferFrom",
      "outputs": [],
      "stateMutability": "nonpayable",
      "type": "function"
    },
    {
      "inputs": [
        {
          "internalType": "address",
          "name": "operator",
          "type": "address"
        },
        {
          "internalType": "bool",
          "name": "approved",
          "type": "bool"
        }
      ],
      "name": "setApprovalForAll",
      "outputs": [],
      "stateMutability": "nonpayable",
      "type": "function"
    },
    {
      "inputs": [
        {
          "internalType": "bytes4",
          "name": "interfaceId",
          "type": "bytes4"
        }
      ],
      "name": "supportsInterface",
      "outputs": [
        {
          "internalType": "bool",
          "name": "",
          "type": "bool"
        }
      ],
      "stateMutability": "view",
      "type": "function"
    },
    {
      "inputs": [],
      "name": "symbol",
      "outputs": [
        {
          "internalType": "string",
          "name": "",
          "type": "string"
        }
      ],
      "stateMutability": "view",
      "type": "function"
    },
    {
      "inputs": [
        {
          "internalType": "uint256",
          "name": "tokenId",
          "type": "uint256"
        }
      ],
      "name": "tokenURI",
      "outputs": [
        {
          "internalType": "string",
          "name": "",
          "type": "string"
        }
      ],
      "stateMutability": "view",
      "type": "function"
    },
    {
      "inputs": [
        {
          "internalType": "address",
          "name": "from",
          "type": "address"
        },
        {
          "internalType": "address",
          "name": "to",
          "type": "address"
        },
        {
          "internalType": "uint256",
          "name": "tokenId",
          "type": "uint256"
        }
      ],
      "name": "transferFrom",
      "outputs": [],
      "stateMutability": "nonpayable",
      "type": "function"
    },
    {
      "inputs": [
        {
          "internalType": "address",
          "name": "newOwner",
          "type": "address"
        }
      ],
      "name": "transferOwnership",
      "outputs": [],
      "stateMutability": "nonpayable",
      "type": "function"
    }
  ],
  "bytecode": "0x608060405234801561001057600080fd5b506040518060400160405280601181526020017f4573746865746963204d656d6f726965730000000000000000000000000000008152506040518060400160405280600381526020017f454d430000000000000000000000000000000000000000000000000000000000815250816000908161008c91906103de565b50806001908161009c91906103de565b5050506100bb6100b06100c060201b60201c565b6100c860201b60201c565b6104b0565b600033905090565b6000600760009054906101000a900473ffffffffffffffffffffffffffffffffffffffff16905081600760006101000a81548173ffffffffffffffffffffffffffffffffffffffff021916908373ffffffffffffffffffffffffffffffffffffffff1602179055508173ffffffffffffffffffffffffffffffffffffffff168173ffffffffffffffffffffffffffffffffffffffff167f8be0079c531659141344cd1fd0a4f28419497f9722a3daafe3b4186f6b6457e060405160405180910390a35050565b600081519050919050565b7f4e487b7100000000000000000000000000000000000000000000000000000000600052604160045260246000fd5b7f4e487b7100000000000000000000000000000000000000000000000000000000600052602260045260246000fd5b6000600282049050600182168061020f57607f821691505b602082108103610222576102216101c8565b5b50919050565b60008190508160005260206000209050919050565b60006020601f8301049050919050565b600082821b905092915050565b60006008830261028a7fffffffffffffffffffffffffffffffffffffffffffffffffffffffffffffffff8261024d565b610294868361024d565b95508019841693508086168417925050509392505050565b6000819050919050565b6000819050919050565b60006102db6102d66102d1846102ac565b6102b6565b6102ac565b9050919050565b6000819050919050565b6102f5836102c0565b610309610301826102e2565b84845461025a565b825550505050565b600090565b61031e610311565b6103298184846102ec565b505050565b5b8181101561034d57610342600082610316565b60018101905061032f565b5050565b601f8211156103925761036381610228565b61036c8461023d565b8101602085101561037b578190505b61038f6103878561023d565b83018261032e565b50505b505050565b600082821c905092915050565b60006103b560001984600802610397565b1980831691505092915050565b60006103ce83836103a4565b9150826002028217905092915050565b6103e78261018e565b67ffffffffffffffff811115610400576103ff610199565b5b61040a82546101f7565b610415828285610351565b600060209050601f8311600181146104485760008415610436578287015190505b61044085826103c2565b8655506104a8565b601f19841661045686610228565b60005b8281101561047e57848901518255600182019150602085019450602081019050610459565b8683101561049b5784890151610497601f8916826103a4565b8355505b6001600288020188555050505b505050505050565b612e50806104bf6000396000f3fe608060405234801561001057600080fd5b506004361061010b5760003560e01c806370a08231116100a2578063a22cb46511610071578063a22cb465146102b8578063b88d4fde146102d4578063c87b56dd146102f0578063e985e9c514610320578063f2fde38b146103505761010b565b806370a0823114610242578063715018a6146102725780638da5cb5b1461027c57806395d89b411461029a5761010b565b806323b872dd116100de57806323b872dd146101aa57806342842e0e146101c6578063473c8b0b146101e25780636352211e146102125761010b565b806301ffc9a71461011057806306fdde0314610140578063081812fc1461015e578063095ea7b31461018e575b600080fd5b61012a60048036038101906101259190611c41565b61036c565b6040516101379190611c89565b60405180910390f35b6101486103cd565b6040516101559190611d34565b60405180910390f35b61017860048036038101906101739190611d8c565b61045f565b6040516101859190611dfa565b60405180910390f35b6101a860048036038101906101a39190611e41565b6104a5565b005b6101c460048036038101906101bf9190611e81565b6105bc565b005b6101e060048036038101906101db9190611e81565b61061c565b005b6101fc60048036038101906101f79190612009565b61063c565b6040516102099190612074565b60405180910390f35b61022c60048036038101906102279190611d8c565b61067c565b6040516102399190611dfa565b60405180910390f35b61025c6004803603810190610257919061208f565b610702565b6040516102699190612074565b60405180910390f35b61027a6107b9565b005b6102846107cd565b6040516102919190611dfa565b60405180910390f35b6102a26107f7565b6040516102af9190611d34565b60405180910390f35b6102d260048036038101906102cd91906120e8565b610889565b005b6102ee60048036038101906102e991906121c9565b61089f565b005b61030a60048036038101906103059190611d8c565b610901565b6040516103179190611d34565b60405180910390f35b61033a6004803603810190610335919061224c565b610a13565b6040516103479190611c89565b60405180910390f35b61036a6004803603810190610365919061208f565b610aa7565b005b6000634906490660e01b7bffffffffffffffffffffffffffffffffffffffffffffffffffffffff1916827bffffffffffffffffffffffffffffffffffffffffffffffffffffffff191614806103c657506103c582610b2a565b5b9050919050565b6060600080546103dc906122bb565b80601f0160208091040260200160405190810160405280929190818152602001828054610408906122bb565b80156104555780601f1061042a57610100808354040283529160200191610455565b820191906000526020600020905b81548152906001019060200180831161043857829003601f168201915b5050505050905090565b600061046a82610c0c565b6004600083815260200190815260200160002060009054906101000a900473ffffffffffffffffffffffffffffffffffffffff169050919050565b60006104b08261067c565b90508073ffffffffffffffffffffffffffffffffffffffff168373ffffffffffffffffffffffffffffffffffffffff1603610520576040517f08c379a00000000000000000000000000000000000000000000000000000000081526004016105179061235e565b60405180910390fd5b8073ffffffffffffffffffffffffffffffffffffffff1661053f610c57565b73ffffffffffffffffffffffffffffffffffffffff16148061056e575061056d81610568610c57565b610a13565b5b6105ad576040517f08c379a00000000000000000000000000000000000000000000000000000000081526004016105a4906123f0565b60405180910390fd5b6105b78383610c5f565b505050565b6105cd6105c7610c57565b82610d18565b61060c576040517f08c379a000000000000000000000000000000000000000000000000000000000815260040161060390612482565b60405180910390fd5b610617838383610dad565b505050565b6106378383836040518060200160405280600081525061089f565b505050565b60006106466110a6565b6106506008611124565b600061065c600861113a565b90506106688482611148565b6106728184611365565b8091505092915050565b60008061068883611409565b9050600073ffffffffffffffffffffffffffffffffffffffff168173ffffffffffffffffffffffffffffffffffffffff16036106f9576040517f08c379a00000000000000000000000000000000000000000000000000000000081526004016106f0906124ee565b60405180910390fd5b80915050919050565b60008073ffffffffffffffffffffffffffffffffffffffff168273ffffffffffffffffffffffffffffffffffffffff1603610772576040517f08c379a000000000000000000000000000000000000000000000000000000000815260040161076990612580565b60405180910390fd5b600360008373ffffffffffffffffffffffffffffffffffffffff1673ffffffffffffffffffffffffffffffffffffffff168152602001908152602001600020549050919050565b6107c16110a6565b6107cb6000611446565b565b6000600760009054906101000a900473ffffffffffffffffffffffffffffffffffffffff16905090565b606060018054610806906122bb565b80601f0160208091040260200160405190810160405280929190818152602001828054610832906122bb565b801561087f5780601f106108545761010080835404028352916020019161087f565b820191906000526020600020905b81548152906001019060200180831161086257829003601f168201915b5050505050905090565b61089b610894610c57565b838361150c565b5050565b6108b06108aa610c57565b83610d18565b6108ef576040517f08c379a00000000000000000000000000000000000000000000000000000000081526004016108e690612482565b60405180910390fd5b6108fb84848484611678565b50505050565b606061090c82610c0c565b600060066000848152602001908152602001600020805461092c906122bb565b80601f0160208091040260200160405190810160405280929190818152602001828054610958906122bb565b80156109a55780601f1061097a576101008083540402835291602001916109a5565b820191906000526020600020905b81548152906001019060200180831161098857829003601f168201915b5050505050905060006109b66116d4565b905060008151036109cb578192505050610a0e565b600082511115610a005780826040516020016109e89291906125dc565b60405160208183030381529060405292505050610a0e565b610a09846116eb565b925050505b919050565b6000600560008473ffffffffffffffffffffffffffffffffffffffff1673ffffffffffffffffffffffffffffffffffffffff16815260200190815260200160002060008373ffffffffffffffffffffffffffffffffffffffff1673ffffffffffffffffffffffffffffffffffffffff16815260200190815260200160002060009054906101000a900460ff16905092915050565b610aaf6110a6565b600073ffffffffffffffffffffffffffffffffffffffff168173ffffffffffffffffffffffffffffffffffffffff1603610b1e576040517f08c379a0000000000000000000000000000000000000000000000000000000008152600401610b1590612672565b60405180910390fd5b610b2781611446565b50565b60007f80ac58cd000000000000000000000000000000000000000000000000000000007bffffffffffffffffffffffffffffffffffffffffffffffffffffffff1916827bffffffffffffffffffffffffffffffffffffffffffffffffffffffff19161480610bf557507f5b5e139f000000000000000000000000000000000000000000000000000000007bffffffffffffffffffffffffffffffffffffffffffffffffffffffff1916827bffffffffffffffffffffffffffffffffffffffffffffffffffffffff1916145b80610c055750610c0482611753565b5b9050919050565b610c15816117bd565b610c54576040517f08c379a0000000000000000000000000000000000000000000000000000000008152600401610c4b906124ee565b60405180910390fd5b50565b600033905090565b816004600083815260200190815260200160002060006101000a81548173ffffffffffffffffffffffffffffffffffffffff021916908373ffffffffffffffffffffffffffffffffffffffff160217905550808273ffffffffffffffffffffffffffffffffffffffff16610cd28361067c565b73ffffffffffffffffffffffffffffffffffffffff167f8c5be1e5ebec7d5bd14f71427d1e84f3dd0314c0f7b2291e5b200ac8c7c3b92560405160405180910390a45050565b600080610d248361067c565b90508073ffffffffffffffffffffffffffffffffffffffff168473ffffffffffffffffffffffffffffffffffffffff161480610d665750610d658185610a13565b5b80610da457508373ffffffffffffffffffffffffffffffffffffffff16610d8c8461045f565b73ffffffffffffffffffffffffffffffffffffffff16145b91505092915050565b8273ffffffffffffffffffffffffffffffffffffffff16610dcd8261067c565b73ffffffffffffffffffffffffffffffffffffffff1614610e23576040517f08c379a0000000000000000000000000000000000000000000000000000000008152600401610e1a90612704565b60405180910390fd5b600073ffffffffffffffffffffffffffffffffffffffff168273ffffffffffffffffffffffffffffffffffffffff1603610e92576040517f08c379a0000000000000000000000000000000000000000000000000000000008152600401610e8990612796565b60405180910390fd5b610e9f83838360016117fe565b8273ffffffffffffffffffffffffffffffffffffffff16610ebf8261067c565b73ffffffffffffffffffffffffffffffffffffffff1614610f15576040517f08c379a0000000000000000000000000000000000000000000000000000000008152600401610f0c90612704565b60405180910390fd5b6004600082815260200190815260200160002060006101000a81549073ffffffffffffffffffffffffffffffffffffffff02191690556001600360008573ffffffffffffffffffffffffffffffffffffffff1673ffffffffffffffffffffffffffffffffffffffff168152602001908152602001600020600082825403925050819055506001600360008473ffffffffffffffffffffffffffffffffffffffff1673ffffffffffffffffffffffffffffffffffffffff16815260200190815260200160002060008282540192505081905550816002600083815260200190815260200160002060006101000a81548173ffffffffffffffffffffffffffffffffffffffff021916908373ffffffffffffffffffffffffffffffffffffffff160217905550808273ffffffffffffffffffffffffffffffffffffffff168473ffffffffffffffffffffffffffffffffffffffff167fddf252ad1be2c89b69c2b068fc378daa952ba7f163c4a11628f55a4df523b3ef60405160405180910390a46110a18383836001611804565b505050565b6110ae610c57565b73ffffffffffffffffffffffffffffffffffffffff166110cc6107cd565b73ffffffffffffffffffffffffffffffffffffffff1614611122576040517f08c379a000000000000000000000000000000000000000000000000000000000815260040161111990612802565b60405180910390fd5b565b6001816000016000828254019250508190555050565b600081600001549050919050565b600073ffffffffffffffffffffffffffffffffffffffff168273ffffffffffffffffffffffffffffffffffffffff16036111b7576040517f08c379a00000000000000000000000000000000000000000000000000000000081526004016111ae9061286e565b60405180910390fd5b6111c0816117bd565b15611200576040517f08c379a00000000000000000000000000000000000000000000000000000000081526004016111f7906128da565b60405180910390fd5b61120e6000838360016117fe565b611217816117bd565b15611257576040517f08c379a000000000000000000000000000000000000000000000000000000000815260040161124e906128da565b60405180910390fd5b6001600360008473ffffffffffffffffffffffffffffffffffffffff1673ffffffffffffffffffffffffffffffffffffffff16815260200190815260200160002060008282540192505081905550816002600083815260200190815260200160002060006101000a81548173ffffffffffffffffffffffffffffffffffffffff021916908373ffffffffffffffffffffffffffffffffffffffff160217905550808273ffffffffffffffffffffffffffffffffffffffff16600073ffffffffffffffffffffffffffffffffffffffff167fddf252ad1be2c89b69c2b068fc378daa952ba7f163c4a11628f55a4df523b3ef60405160405180910390a4611361600083836001611804565b5050565b61136e826117bd565b6113ad576040517f08c379a00000000000000000000000000000000000000000000000000000000081526004016113a49061296c565b60405180910390fd5b806006600084815260200190815260200160002090816113cd9190612b38565b507ff8e1a15aba9398e019f0b49df1a4fde98ee17ae345cb5f6b5e2c27f5033e8ce7826040516113fd9190612074565b60405180910390a15050565b60006002600083815260200190815260200160002060009054906101000a900473ffffffffffffffffffffffffffffffffffffffff169050919050565b6000600760009054906101000a900473ffffffffffffffffffffffffffffffffffffffff16905081600760006101000a81548173ffffffffffffffffffffffffffffffffffffffff021916908373ffffffffffffffffffffffffffffffffffffffff1602179055508173ffffffffffffffffffffffffffffffffffffffff168173ffffffffffffffffffffffffffffffffffffffff167f8be0079c531659141344cd1fd0a4f28419497f9722a3daafe3b4186f6b6457e060405160405180910390a35050565b8173ffffffffffffffffffffffffffffffffffffffff168373ffffffffffffffffffffffffffffffffffffffff160361157a576040517f08c379a000000000000000000000000000000000000000000000000000000000815260040161157190612c56565b60405180910390fd5b80600560008573ffffffffffffffffffffffffffffffffffffffff1673ffffffffffffffffffffffffffffffffffffffff16815260200190815260200160002060008473ffffffffffffffffffffffffffffffffffffffff1673ffffffffffffffffffffffffffffffffffffffff16815260200190815260200160002060006101000a81548160ff0219169083151502179055508173ffffffffffffffffffffffffffffffffffffffff168373ffffffffffffffffffffffffffffffffffffffff167f17307eab39ab6107e8899845ad3d59bd9653f200f220920489ca2b5937696c318360405161166b9190611c89565b60405180910390a3505050565b611683848484610dad565b61168f8484848461180a565b6116ce576040517f08c379a00000000000000000000000000000000000000000000000000000000081526004016116c590612ce8565b60405180910390fd5b50505050565b606060405180602001604052806000815250905090565b60606116f682610c0c565b60006117006116d4565b90506000815111611720576040518060200160405280600081525061174b565b8061172a84611991565b60405160200161173b9291906125dc565b6040516020818303038152906040525b915050919050565b60007f01ffc9a7000000000000000000000000000000000000000000000000000000007bffffffffffffffffffffffffffffffffffffffffffffffffffffffff1916827bffffffffffffffffffffffffffffffffffffffffffffffffffffffff1916149050919050565b60008073ffffffffffffffffffffffffffffffffffffffff166117df83611409565b73ffffffffffffffffffffffffffffffffffffffff1614159050919050565b50505050565b50505050565b600061182b8473ffffffffffffffffffffffffffffffffffffffff16611a5f565b15611984578373ffffffffffffffffffffffffffffffffffffffff1663150b7a02611854610c57565b8786866040518563ffffffff1660e01b81526004016118769493929190612d5d565b6020604051808303816000875af19250505080156118b257506040513d601f19601f820116820180604052508101906118af9190612dbe565b60015b611934573d80600081146118e2576040519150601f19603f3d011682016040523d82523d6000602084013e6118e7565b606091505b50600081510361192c576040517f08c379a000000000000000000000000000000000000000000000000000000000815260040161192390612ce8565b60405180910390fd5b805181602001fd5b63150b7a0260e01b7bffffffffffffffffffffffffffffffffffffffffffffffffffffffff1916817bffffffffffffffffffffffffffffffffffffffffffffffffffffffff191614915050611989565b600190505b949350505050565b6060600060016119a084611a82565b01905060008167ffffffffffffffff8111156119bf576119be611ede565b5b6040519080825280601f01601f1916602001820160405280156119f15781602001600182028036833780820191505090505b509050600082602001820190505b600115611a54578080600190039150507f3031323334353637383961626364656600000000000000000000000000000000600a86061a8153600a8581611a4857611a47612deb565b5b049450600085036119ff575b819350505050919050565b6000808273ffffffffffffffffffffffffffffffffffffffff163b119050919050565b600080600090507a184f03e93ff9f4daa797ed6e38ed64bf6a1f0100000000000000008310611ae0577a184f03e93ff9f4daa797ed6e38ed64bf6a1f0100000000000000008381611ad657611ad5612deb565b5b0492506040810190505b6d04ee2d6d415b85acef81000000008310611b1d576d04ee2d6d415b85acef81000000008381611b1357611b12612deb565b5b0492506020810190505b662386f26fc100008310611b4c57662386f26fc100008381611b4257611b41612deb565b5b0492506010810190505b6305f5e1008310611b75576305f5e1008381611b6b57611b6a612deb565b5b0492506008810190505b6127108310611b9a576127108381611b9057611b8f612deb565b5b0492506004810190505b60648310611bbd5760648381611bb357611bb2612deb565b5b0492506002810190505b600a8310611bcc576001810190505b80915050919050565b6000604051905090565b600080fd5b600080fd5b60007fffffffff0000000000000000000000000000000000000000000000000000000082169050919050565b611c1e81611be9565b8114611c2957600080fd5b50565b600081359050611c3b81611c15565b92915050565b600060208284031215611c5757611c56611bdf565b5b6000611c6584828501611c2c565b91505092915050565b60008115159050919050565b611c8381611c6e565b82525050565b6000602082019050611c9e6000830184611c7a565b92915050565b600081519050919050565b600082825260208201905092915050565b60005b83811015611cde578082015181840152602081019050611cc3565b60008484015250505050565b6000601f19601f8301169050919050565b6000611d0682611ca4565b611d108185611caf565b9350611d20818560208601611cc0565b611d2981611cea565b840191505092915050565b60006020820190508181036000830152611d4e8184611cfb565b905092915050565b6000819050919050565b611d6981611d56565b8114611d7457600080fd5b50565b600081359050611d8681611d60565b92915050565b600060208284031215611da257611da1611bdf565b5b6000611db084828501611d77565b91505092915050565b600073ffffffffffffffffffffffffffffffffffffffff82169050919050565b6000611de482611db9565b9050919050565b611df481611dd9565b82525050565b6000602082019050611e0f6000830184611deb565b92915050565b611e1e81611dd9565b8114611e2957600080fd5b50565b600081359050611e3b81611e15565b92915050565b60008060408385031215611e5857611e57611bdf565b5b6000611e6685828601611e2c565b9250506020611e7785828601611d77565b9150509250929050565b600080600060608486031215611e9a57611e99611bdf565b5b6000611ea886828701611e2c565b9350506020611eb986828701611e2c565b9250506040611eca86828701611d77565b9150509250925092565b600080fd5b600080fd5b7f4e487b7100000000000000000000000000000000000000000000000000000000600052604160045260246000fd5b611f1682611cea565b810181811067ffffffffffffffff82111715611f3557611f34611ede565b5b80604052505050565b6000611f48611bd5565b9050611f548282611f0d565b919050565b600067ffffffffffffffff821115611f7457611f73611ede565b5b611f7d82611cea565b9050602081019050919050565b82818337600083830152505050565b6000611fac611fa784611f59565b611f3e565b905082815260208101848484011115611fc857611fc7611ed9565b5b611fd3848285611f8a565b509392505050565b600082601f830112611ff057611fef611ed4565b5b8135612000848260208601611f99565b91505092915050565b600080604083850312156120205761201f611bdf565b5b600061202e85828601611e2c565b925050602083013567ffffffffffffffff81111561204f5761204e611be4565b5b61205b85828601611fdb565b9150509250929050565b61206e81611d56565b82525050565b60006020820190506120896000830184612065565b92915050565b6000602082840312156120a5576120a4611bdf565b5b60006120b384828501611e2c565b91505092915050565b6120c581611c6e565b81146120d057600080fd5b50565b6000813590506120e2816120bc565b92915050565b600080604083850312156120ff576120fe611bdf565b5b600061210d85828601611e2c565b925050602061211e858286016120d3565b9150509250929050565b600067ffffffffffffffff82111561214357612142611ede565b5b61214c82611cea565b9050602081019050919050565b600061216c61216784612128565b611f3e565b90508281526020810184848401111561218857612187611ed9565b5b612193848285611f8a565b509392505050565b600082601f8301126121b0576121af611ed4565b5b81356121c0848260208601612159565b91505092915050565b600080600080608085870312156121e3576121e2611bdf565b5b60006121f187828801611e2c565b945050602061220287828801611e2c565b935050604061221387828801611d77565b925050606085013567ffffffffffffffff81111561223457612233611be4565b5b6122408782880161219b565b91505092959194509250565b6000806040838503121561226357612262611bdf565b5b600061227185828601611e2c565b925050602061228285828601611e2c565b9150509250929050565b7f4e487b7100000000000000000000000000000000000000000000000000000000600052602260045260246000fd5b600060028204905060018216806122d357607f821691505b6020821081036122e6576122e561228c565b5b50919050565b7f4552433732313a20617070726f76616c20746f2063757272656e74206f776e6560008201527f7200000000000000000000000000000000000000000000000000000000000000602082015250565b6000612348602183611caf565b9150612353826122ec565b604082019050919050565b600060208201905081810360008301526123778161233b565b9050919050565b7f4552433732313a20617070726f76652063616c6c6572206973206e6f7420746f60008201527f6b656e206f776e6572206f7220617070726f76656420666f7220616c6c000000602082015250565b60006123da603d83611caf565b91506123e58261237e565b604082019050919050565b60006020820190508181036000830152612409816123cd565b9050919050565b7f4552433732313a2063616c6c6572206973206e6f7420746f6b656e206f776e6560008201527f72206f7220617070726f76656400000000000000000000000000000000000000602082015250565b600061246c602d83611caf565b915061247782612410565b604082019050919050565b6000602082019050818103600083015261249b8161245f565b9050919050565b7f4552433732313a20696e76616c696420746f6b656e2049440000000000000000600082015250565b60006124d8601883611caf565b91506124e3826124a2565b602082019050919050565b60006020820190508181036000830152612507816124cb565b9050919050565b7f4552433732313a2061646472657373207a65726f206973206e6f74206120766160008201527f6c6964206f776e65720000000000000000000000000000000000000000000000602082015250565b600061256a602983611caf565b91506125758261250e565b604082019050919050565b600060208201905081810360008301526125998161255d565b9050919050565b600081905092915050565b60006125b682611ca4565b6125c081856125a0565b93506125d0818560208601611cc0565b80840191505092915050565b60006125e882856125ab565b91506125f482846125ab565b91508190509392505050565b7f4f776e61626c653a206e6577206f776e657220697320746865207a65726f206160008201527f6464726573730000000000000000000000000000000000000000000000000000602082015250565b600061265c602683611caf565b915061266782612600565b604082019050919050565b6000602082019050818103600083015261268b8161264f565b9050919050565b7f4552433732313a207472616e736665722066726f6d20696e636f72726563742060008201527f6f776e6572000000000000000000000000000000000000000000000000000000602082015250565b60006126ee602583611caf565b91506126f982612692565b604082019050919050565b6000602082019050818103600083015261271d816126e1565b9050919050565b7f4552433732313a207472616e7366657220746f20746865207a65726f2061646460008201527f7265737300000000000000000000000000000000000000000000000000000000602082015250565b6000612780602483611caf565b915061278b82612724565b604082019050919050565b600060208201905081810360008301526127af81612773565b9050919050565b7f4f776e61626c653a2063616c6c6572206973206e6f7420746865206f776e6572600082015250565b60006127ec602083611caf565b91506127f7826127b6565b602082019050919050565b6000602082019050818103600083015261281b816127df565b9050919050565b7f4552433732313a206d696e7420746f20746865207a65726f2061646472657373600082015250565b6000612858602083611caf565b915061286382612822565b602082019050919050565b600060208201905081810360008301526128878161284b565b9050919050565b7f4552433732313a20746f6b656e20616c7265616479206d696e74656400000000600082015250565b60006128c4601c83611caf565b91506128cf8261288e565b602082019050919050565b600060208201905081810360008301526128f3816128b7565b9050919050565b7f45524337323155524953746f726167653a2055524920736574206f66206e6f6e60008201527f6578697374656e7420746f6b656e000000000000000000000000000000000000602082015250565b6000612956602e83611caf565b9150612961826128fa565b604082019050919050565b6000602082019050818103600083015261298581612949565b9050919050565b60008190508160005260206000209050919050565b60006020601f8301049050919050565b600082821b905092915050565b6000600883026129ee7fffffffffffffffffffffffffffffffffffffffffffffffffffffffffffffffff826129b1565b6129f886836129b1565b95508019841693508086168417925050509392505050565b6000819050919050565b6000612a35612a30612a2b84611d56565b612a10565b611d56565b9050919050565b6000819050919050565b612a4f83612a1a565b612a63612a5b82612a3c565b8484546129be565b825550505050565b600090565b612a78612a6b565b612a83818484612a46565b505050565b5b81811015612aa757612a9c600082612a70565b600181019050612a89565b5050565b601f821115612aec57612abd8161298c565b612ac6846129a1565b81016020851015612ad5578190505b612ae9612ae1856129a1565b830182612a88565b50505b505050565b600082821c905092915050565b6000612b0f60001984600802612af1565b1980831691505092915050565b6000612b288383612afe565b9150826002028217905092915050565b612b4182611ca4565b67ffffffffffffffff811115612b5a57612b59611ede565b5b612b6482546122bb565b612b6f828285612aab565b600060209050601f831160018114612ba25760008415612b90578287015190505b612b9a8582612b1c565b865550612c02565b601f198416612bb08661298c565b60005b82811015612bd857848901518255600182019150602085019450602081019050612bb3565b86831015612bf55784890151612bf1601f891682612afe565b8355505b6001600288020188555050505b505050505050565b7f4552433732313a20617070726f766520746f2063616c6c657200000000000000600082015250565b6000612c40601983611caf565b9150612c4b82612c0a565b602082019050919050565b60006020820190508181036000830152612c6f81612c33565b9050919050565b7f4552433732313a207472616e7366657220746f206e6f6e20455243373231526560008201527f63656976657220696d706c656d656e7465720000000000000000000000000000602082015250565b6000612cd2603283611caf565b9150612cdd82612c76565b604082019050919050565b60006020820190508181036000830152612d0181612cc5565b9050919050565b600081519050919050565b600082825260208201905092915050565b6000612d2f82612d08565b612d398185612d13565b9350612d49818560208601611cc0565b612d5281611cea565b840191505092915050565b6000608082019050612d726000830187611deb565b612d7f6020830186611deb565b612d8c6040830185612065565b8181036060830152612d9e8184612d24565b905095945050505050565b600081519050612db881611c15565b92915050565b600060208284031215612dd457612dd3611bdf565b5b6000612de284828501612da9565b91505092915050565b7f4e487b7100000000000000000000000000000000000000000000000000000000600052601260045260246000fdfea26469706673582212203de16f956f7794f69140608f73f0701a09440c10b3fa3b16dd4388305232e89664736f6c634300081b0033",
  "linkReferences": {},
  "deployedLinkReferences": {}
}